{
  "_format": "hh-sol-artifact-1",
  "contractName": "Lottery",
  "sourceName": "contracts/Lottery.sol",
  "abi": [
    {
      "inputs": [
        {
          "internalType": "uint32",
          "name": "_merkleTreeHeight",
          "type": "uint32"
        },
        {
          "internalType": "address",
          "name": "_verifier",
          "type": "address"
        },
        {
          "internalType": "uint256",
          "name": "_ticketPrice",
          "type": "uint256"
        },
        {
          "internalType": "uint256",
          "name": "_initialJackPot",
          "type": "uint256"
        }
      ],
      "stateMutability": "payable",
      "type": "constructor"
    },
    {
      "inputs": [
        {
          "internalType": "address",
          "name": "owner",
          "type": "address"
        }
      ],
      "name": "OwnableInvalidOwner",
      "type": "error"
    },
    {
      "inputs": [
        {
          "internalType": "address",
          "name": "account",
          "type": "address"
        }
      ],
      "name": "OwnableUnauthorizedAccount",
      "type": "error"
    },
    {
      "anonymous": false,
      "inputs": [
        {
          "indexed": true,
          "internalType": "address",
          "name": "previousOwner",
          "type": "address"
        },
        {
          "indexed": true,
          "internalType": "address",
          "name": "newOwner",
          "type": "address"
        }
      ],
      "name": "OwnershipTransferred",
      "type": "event"
    },
    {
      "anonymous": false,
      "inputs": [
        {
          "indexed": true,
          "internalType": "bytes32",
          "name": "commitment",
          "type": "bytes32"
        },
        {
          "indexed": false,
          "internalType": "uint32",
          "name": "leafIndex",
          "type": "uint32"
        },
        {
          "indexed": false,
          "internalType": "uint256",
          "name": "timestamp",
          "type": "uint256"
        }
      ],
      "name": "Purchase",
      "type": "event"
    },
    {
      "inputs": [],
      "name": "ROOT_HISTORY_SIZE",
      "outputs": [
        {
          "internalType": "uint32",
          "name": "",
          "type": "uint32"
        }
      ],
      "stateMutability": "view",
      "type": "function"
    },
    {
      "inputs": [
        {
          "internalType": "bytes32",
          "name": "_ticketCommitment",
          "type": "bytes32"
        }
      ],
      "name": "buyTicket",
      "outputs": [],
      "stateMutability": "payable",
      "type": "function"
    },
    {
      "inputs": [],
      "name": "currentRootIndex",
      "outputs": [
        {
          "internalType": "uint32",
          "name": "",
          "type": "uint32"
        }
      ],
      "stateMutability": "view",
      "type": "function"
    },
    {
      "inputs": [
        {
          "internalType": "uint256",
          "name": "_winningPickId",
          "type": "uint256"
        }
      ],
      "name": "draw",
      "outputs": [],
      "stateMutability": "nonpayable",
      "type": "function"
    },
    {
      "inputs": [
        {
          "internalType": "uint256",
          "name": "",
          "type": "uint256"
        }
      ],
      "name": "filledSubtrees",
      "outputs": [
        {
          "internalType": "bytes32",
          "name": "",
          "type": "bytes32"
        }
      ],
      "stateMutability": "view",
      "type": "function"
    },
    {
      "inputs": [],
      "name": "gameState",
      "outputs": [
        {
          "internalType": "enum GameState",
          "name": "",
          "type": "uint8"
        }
      ],
      "stateMutability": "view",
      "type": "function"
    },
    {
      "inputs": [],
      "name": "getLastRoot",
      "outputs": [
        {
          "internalType": "bytes32",
          "name": "",
          "type": "bytes32"
        }
      ],
      "stateMutability": "view",
      "type": "function"
    },
    {
      "inputs": [
        {
          "internalType": "bytes32",
          "name": "_left",
          "type": "bytes32"
        },
        {
          "internalType": "bytes32",
          "name": "_right",
          "type": "bytes32"
        }
      ],
      "name": "hashLeftRight",
      "outputs": [
        {
          "internalType": "bytes32",
          "name": "",
          "type": "bytes32"
        }
      ],
      "stateMutability": "pure",
      "type": "function"
    },
    {
      "inputs": [
        {
          "internalType": "bytes32",
          "name": "_root",
          "type": "bytes32"
        }
      ],
      "name": "isKnownRoot",
      "outputs": [
        {
          "internalType": "bool",
          "name": "",
          "type": "bool"
        }
      ],
      "stateMutability": "view",
      "type": "function"
    },
    {
      "inputs": [],
      "name": "jackPot",
      "outputs": [
        {
          "internalType": "uint256",
          "name": "",
          "type": "uint256"
        }
      ],
      "stateMutability": "view",
      "type": "function"
    },
    {
      "inputs": [],
      "name": "levels",
      "outputs": [
        {
          "internalType": "uint32",
          "name": "",
          "type": "uint32"
        }
      ],
      "stateMutability": "view",
      "type": "function"
    },
    {
      "inputs": [],
      "name": "nextIndex",
      "outputs": [
        {
          "internalType": "uint32",
          "name": "",
          "type": "uint32"
        }
      ],
      "stateMutability": "view",
      "type": "function"
    },
    {
      "inputs": [
        {
          "internalType": "bytes32",
          "name": "",
          "type": "bytes32"
        }
      ],
      "name": "nullifiers",
      "outputs": [
        {
          "internalType": "bool",
          "name": "",
          "type": "bool"
        }
      ],
      "stateMutability": "view",
      "type": "function"
    },
    {
      "inputs": [],
      "name": "owner",
      "outputs": [
        {
          "internalType": "address",
          "name": "",
          "type": "address"
        }
      ],
      "stateMutability": "view",
      "type": "function"
    },
    {
      "inputs": [],
      "name": "payOutWinners",
      "outputs": [],
      "stateMutability": "nonpayable",
      "type": "function"
    },
    {
      "inputs": [],
      "name": "renounceOwnership",
      "outputs": [],
      "stateMutability": "nonpayable",
      "type": "function"
    },
    {
      "inputs": [
        {
          "internalType": "bytes32",
          "name": "_root",
          "type": "bytes32"
        },
        {
          "internalType": "bytes32",
          "name": "_nullifier",
          "type": "bytes32"
        },
        {
          "internalType": "uint256",
          "name": "_pickId",
          "type": "uint256"
        },
        {
          "internalType": "address",
          "name": "_recipient",
          "type": "address"
        },
        {
          "internalType": "bytes",
          "name": "_snarkProof",
          "type": "bytes"
        }
      ],
      "name": "revealWinningCommitment",
      "outputs": [],
      "stateMutability": "nonpayable",
      "type": "function"
    },
    {
      "inputs": [
        {
          "internalType": "uint256",
          "name": "",
          "type": "uint256"
        }
      ],
      "name": "roots",
      "outputs": [
        {
          "internalType": "bytes32",
          "name": "",
          "type": "bytes32"
        }
      ],
      "stateMutability": "view",
      "type": "function"
    },
    {
      "inputs": [
        {
          "internalType": "bytes32",
          "name": "",
          "type": "bytes32"
        }
      ],
      "name": "ticketCommitments",
      "outputs": [
        {
          "internalType": "bool",
          "name": "",
          "type": "bool"
        }
      ],
      "stateMutability": "view",
      "type": "function"
    },
    {
      "inputs": [],
      "name": "ticketPrice",
      "outputs": [
        {
          "internalType": "uint256",
          "name": "",
          "type": "uint256"
        }
      ],
      "stateMutability": "view",
      "type": "function"
    },
    {
      "inputs": [
        {
          "internalType": "address",
          "name": "newOwner",
          "type": "address"
        }
      ],
      "name": "transferOwnership",
      "outputs": [],
      "stateMutability": "nonpayable",
      "type": "function"
    },
    {
      "inputs": [],
      "name": "verifier",
      "outputs": [
        {
          "internalType": "address",
          "name": "",
          "type": "address"
        }
      ],
      "stateMutability": "view",
      "type": "function"
    },
    {
      "inputs": [
        {
          "internalType": "uint256",
          "name": "",
          "type": "uint256"
        }
      ],
      "name": "winners",
      "outputs": [
        {
          "internalType": "address",
          "name": "",
          "type": "address"
        }
      ],
      "stateMutability": "view",
      "type": "function"
    },
    {
      "inputs": [],
      "name": "winningPickId",
      "outputs": [
        {
          "internalType": "uint256",
          "name": "",
          "type": "uint256"
        }
      ],
      "stateMutability": "view",
      "type": "function"
    },
    {
      "inputs": [
        {
          "internalType": "uint256",
          "name": "i",
          "type": "uint256"
        }
      ],
      "name": "zeros",
      "outputs": [
        {
          "internalType": "bytes32",
          "name": "",
          "type": "bytes32"
        }
      ],
      "stateMutability": "pure",
      "type": "function"
    }
  ],
  "bytecode": "0x60806040819052600380546001600160401b0319169055600a805460ff1916905562002384388190039081908339810160408190526200003f9162000904565b33845f8163ffffffff1611620000a85760405162461bcd60e51b815260206004820152602360248201527f5f6c6576656c732073686f756c642062652067726561746572207468616e207a60448201526265726f60e81b60648201526084015b60405180910390fd5b60208163ffffffff1610620001005760405162461bcd60e51b815260206004820152601e60248201527f5f6c6576656c732073686f756c64206265206c657373207468616e203332000060448201526064016200009f565b5f805463ffffffff191663ffffffff83161781555b8163ffffffff168163ffffffff1610156200015d576200013b63ffffffff821662000279565b63ffffffff82165f908152600160208190526040909120919091550162000115565b506200016f63ffffffff821662000279565b5f805260026020527fac33ff75c19e70fe83507db0d683fd3465c996598dc972688b7ace676c89077b55506001600160a01b038116620001c557604051631e4fbdf760e01b81525f60048201526024016200009f565b620001d081620008a2565b50348114620002485760405162461bcd60e51b815260206004820152603960248201527f616d6f756e74206f66206574682073656e6420646f65736e74206d617463682060448201527f74686520696e697469616c206a61636b20706f742073656e640000000000000060648201526084016200009f565b600680546001600160a01b0319166001600160a01b039490941693909317909255600991909155600855506200095f565b5f815f036200028957505f919050565b81600103620002b957507f2098f5fb9e239eab3ceac3f27b81e481dc3124d55ffed523a839ee8446b64864919050565b81600203620002e957507f1069673dcdb12263df301a6ff584a7ec261a44cb9dc68df067a4774460b1f1e1919050565b816003036200031957507f18f43331537ee2af2e3d758d50f72106467c6eea50371dd528d57eb2b856d238919050565b816004036200034957507f07f9d837cb17b0d36320ffe93ba52345f1b728571a568265caac97559dbc952a919050565b816005036200037957507f2b94cf5e8746b3f5c9631f4c5df32907a699c58c94b2ad4d7b5cec1639183f55919050565b81600603620003a957507f2dee93c5a666459646ea7d22cca9e1bcfed71e6951b953611d11dda32ea09d78919050565b81600703620003d957507f078295e5a22b84e982cf601eb639597b8b0515a88cb5ac7fa8a4aabe3c87349d919050565b816008036200040957507f2fa5e5f18f6027a6501bec864564472a616b2e274a41211a444cbe3a99f3cc61919050565b816009036200043957507f0e884376d0d8fd21ecb780389e941f66e45e7acce3e228ab3e2156a614fcd747919050565b81600a036200046957507f1b7201da72494f1e28717ad1a52eb469f95892f957713533de6175e5da190af2919050565b81600b036200049957507f1f8d8822725e36385200c0b201249819a6e6e1e4650808b5bebc6bface7d7636919050565b81600c03620004c957507f2c5d82f66c914bafb9701589ba8cfcfb6162b0a12acf88a8d0879a0471b5f85a919050565b81600d03620004f957507f14c54148a0940bb820957f5adf3fa1134ef5c4aaa113f4646458f270e0bfbfd0919050565b81600e036200052957507f190d33b12f986f961e10c0ee44d8b9af11be25588cad89d416118e4bf4ebe80c919050565b81600f036200055957507f22f98aa9ce704152ac17354914ad73ed1167ae6596af510aa5b3649325e06c92919050565b816010036200058957507f2a7c7c9b6ce5880b9f6f228d72bf6a575a526f29c66ecceef8b753d38bba7323919050565b81601103620005b957507f2e8186e558698ec1c67af9c14d463ffc470043c9c2988b954d75dd643f36b992919050565b81601203620005e957507f0f57c5571e9a4eab49e2c8cf050dae948aef6ead647392273546249d1c1ff10f919050565b816013036200061957507f1830ee67b5fb554ad5f63d4388800e1cfe78e310697d46e43c9ce36134f72cca919050565b816014036200064957507f2134e76ac5d21aab186c2be1dd8f84ee880a1e46eaf712f9d371b6df22191f3e919050565b816015036200067957507f19df90ec844ebc4ffeebd866f33859b0c051d8c958ee3aa88f8f8df3db91a5b1919050565b81601603620006a957507f18cca2a66b5c0787981e69aefd84852d74af0e93ef4912b4648c05f722efe52b919050565b81601703620006d957507f2388909415230d1b4d1304d2d54f473a628338f2efad83fadf05644549d2538d919050565b816018036200070957507f27171fb4a97b6cc0e9e8f543b5294de866a2af2c9c8d0b1d96e673e4529ed540919050565b816019036200073957507f2ff6650540f629fd5711a0bc74fc0d28dcb230b9392583e5f8d59696dde6ae21919050565b81601a036200076957507f120c58f143d491e95902f7f5277778a2e0ad5168f6add75669932630ce611518919050565b81601b036200079957507f1f21feb70d3f21b07bf853d5e5db03071ec495a0a565a21da2d665d279483795919050565b81601c03620007c957507f24be905fa71335e14c638cc0f66a8623a826e768068a9e968bb1a1dde18a72d2919050565b81601d03620007f957507f0f8666b62ed17491c50ceadead57d4cd597ef3821d65c328744c74e553dac26d919050565b81601e036200082957507f0918d46bf52d98b034413f4a1a1c41594e7a7a3f6ae08cb43d1a2a230e1959ef919050565b81601f036200085957507f1bbeb01b4c479ecde76917645e404dfa2e26f90d0afc5a65128513ad375c5ff2919050565b60405162461bcd60e51b815260206004820152601360248201527f496e646578206f7574206f6620626f756e64730000000000000000000000000060448201526064016200009f565b600380546001600160a01b0383811668010000000000000000818102600160401b600160e01b031985161790945560405193909204169182907f8be0079c531659141344cd1fd0a4f28419497f9722a3daafe3b4186f6b6457e0905f90a35050565b5f805f806080858703121562000918575f80fd5b845163ffffffff811681146200092c575f80fd5b60208601519094506001600160a01b038116811462000949575f80fd5b6040860151606090960151949790965092505050565b611a17806200096d5f395ff3fe608060405260043610610161575f3560e01c80638da5cb5b116100cd578063d1f9c24d11610087578063efa0f99811610062578063efa0f9981461042f578063f178e47c1461044e578063f2fde38b14610479578063fc7e9c6f14610498575f80fd5b8063d1f9c24d146103d7578063e5423274146103fd578063e829558814610410575f80fd5b80638da5cb5b1461031157806390eeb02b14610335578063a2fb117514610351578063ba70f75714610370578063c2b40ae414610398578063cd87a3b4146103c3575f80fd5b80633b3041471161011e5780633b304147146102655780634a78cdba146102845780634ecf518b146102995780636ae37dcb146102c95780636d9833e3146102de578063715018a6146102fd575f80fd5b806305b81062146101655780631209b1f61461017b5780631aef5741146101a35780632997e86b146101e15780632b7ac3f31461020f57806338bf282e14610246575b5f80fd5b348015610170575f80fd5b506101796104bc565b005b348015610186575f80fd5b5061019060085481565b6040519081526020015b60405180910390f35b3480156101ae575f80fd5b506101d16101bd3660046115b2565b60046020525f908152604090205460ff1681565b604051901515815260200161019a565b3480156101ec575f80fd5b506101d16101fb3660046115b2565b60056020525f908152604090205460ff1681565b34801561021a575f80fd5b5060065461022e906001600160a01b031681565b6040516001600160a01b03909116815260200161019a565b348015610251575f80fd5b506101906102603660046115c9565b6105d7565b348015610270575f80fd5b5061017961027f3660046115b2565b61066c565b34801561028f575f80fd5b5061019060095481565b3480156102a4575f80fd5b505f546102b49063ffffffff1681565b60405163ffffffff909116815260200161019a565b3480156102d4575f80fd5b5061019060075481565b3480156102e9575f80fd5b506101d16102f83660046115b2565b61070a565b348015610308575f80fd5b50610179610783565b34801561031c575f80fd5b50600354600160401b90046001600160a01b031661022e565b348015610340575f80fd5b506003546102b49063ffffffff1681565b34801561035c575f80fd5b5061022e61036b3660046115b2565b610796565b34801561037b575f80fd5b5060035463ffffffff165f90815260026020526040902054610190565b3480156103a3575f80fd5b506101906103b23660046115b2565b60026020525f908152604090205481565b3480156103ce575f80fd5b506102b4601e81565b3480156103e2575f80fd5b50600a546103f09060ff1681565b60405161019a91906115fd565b61017961040b3660046115b2565b6107be565b34801561041b575f80fd5b5061019061042a3660046115b2565b610999565b34801561043a575f80fd5b50610179610449366004611639565b610f9c565b348015610459575f80fd5b506101906104683660046115b2565b60016020525f908152604090205481565b348015610484575f80fd5b506101796104933660046116d0565b611264565b3480156104a3575f80fd5b506003546102b490640100000000900463ffffffff1681565b6104c46112a1565b6001600a5460ff1660028111156104dd576104dd6115e9565b1461054d5760405162461bcd60e51b815260206004820152603560248201527f7061796f75742063616e206f6e6c792068617070656e20746f20656e64207468604482015274652072657665616c2077696e6e657220706861736560581b60648201526084015b60405180910390fd5b600a805460ff19166002179055600b546009545f9061056d908390611718565b90505f5b828110156105d257600b818154811061058c5761058c61172b565b5f9182526020822001546040516001600160a01b039091169184156108fc02918591818181858888f193505050501580156105c9573d5f803e3d5ffd5b50600101610571565b505050565b604080518082018252838152602081018390529051632b0aac7f60e11b81525f919073__$75f79a42d9bcbdbb69ad79ebd80f556f39$__9063561558fe9061062390849060040161173f565b602060405180830381865af415801561063e573d5f803e3d5ffd5b505050506040513d601f19601f82011682018060405250810190610662919061176f565b9150505b92915050565b6106746112a1565b5f600a5460ff16600281111561068c5761068c6115e9565b146106f85760405162461bcd60e51b815260206004820152603660248201527f77696e6e696e67205069636b2063616e206f6e6c792062652073657420647572604482015275696e672074686520707572636861736520706861736560501b6064820152608401610544565b600755600a805460ff19166001179055565b5f81810361071957505f919050565b60035463ffffffff16805b63ffffffff81165f908152600260205260409020548403610749575060019392505050565b8063ffffffff165f0361075a5750601e5b8061076481611786565b9150508163ffffffff168163ffffffff160361072457505f9392505050565b61078b6112a1565b6107945f6112d6565b565b600b81815481106107a5575f80fd5b5f918252602090912001546001600160a01b0316905081565b5f600a5460ff1660028111156107d6576107d66115e9565b146108335760405162461bcd60e51b815260206004820152602760248201527f6c6f7474657279206973206e6f206c6f6e67657220616c6c6f77696e672070756044820152667263686173657360c81b6064820152608401610544565b5f8181526004602052604090205460ff16156108aa5760405162461bcd60e51b815260206004820152603060248201527f41207469636b65742077697468207468697320636f6d6d69746d656e7420776160448201526f1cc8185b1c9958591e48189bdd59da1d60821b6064820152608401610544565b60085434146109145760405162461bcd60e51b815260206004820152603060248201527f616d6f756e74206f66206574682073656e6420646f65736e74206d617463682060448201526f746865207469636b657420707269636560801b6064820152608401610544565b5f61091e82611338565b5f838152600460205260408120805460ff191660011790556008546009805493945090929091906109509084906117a4565b90915550506040805163ffffffff8316815242602082015283917fa9782ec1d47a3abed1df88fcee872bf11a7d458e436af2af739b08cf20ddda6a910160405180910390a25050565b5f815f036109a857505f919050565b816001036109d757507f2098f5fb9e239eab3ceac3f27b81e481dc3124d55ffed523a839ee8446b64864919050565b81600203610a0657507f1069673dcdb12263df301a6ff584a7ec261a44cb9dc68df067a4774460b1f1e1919050565b81600303610a3557507f18f43331537ee2af2e3d758d50f72106467c6eea50371dd528d57eb2b856d238919050565b81600403610a6457507f07f9d837cb17b0d36320ffe93ba52345f1b728571a568265caac97559dbc952a919050565b81600503610a9357507f2b94cf5e8746b3f5c9631f4c5df32907a699c58c94b2ad4d7b5cec1639183f55919050565b81600603610ac257507f2dee93c5a666459646ea7d22cca9e1bcfed71e6951b953611d11dda32ea09d78919050565b81600703610af157507f078295e5a22b84e982cf601eb639597b8b0515a88cb5ac7fa8a4aabe3c87349d919050565b81600803610b2057507f2fa5e5f18f6027a6501bec864564472a616b2e274a41211a444cbe3a99f3cc61919050565b81600903610b4f57507f0e884376d0d8fd21ecb780389e941f66e45e7acce3e228ab3e2156a614fcd747919050565b81600a03610b7e57507f1b7201da72494f1e28717ad1a52eb469f95892f957713533de6175e5da190af2919050565b81600b03610bad57507f1f8d8822725e36385200c0b201249819a6e6e1e4650808b5bebc6bface7d7636919050565b81600c03610bdc57507f2c5d82f66c914bafb9701589ba8cfcfb6162b0a12acf88a8d0879a0471b5f85a919050565b81600d03610c0b57507f14c54148a0940bb820957f5adf3fa1134ef5c4aaa113f4646458f270e0bfbfd0919050565b81600e03610c3a57507f190d33b12f986f961e10c0ee44d8b9af11be25588cad89d416118e4bf4ebe80c919050565b81600f03610c6957507f22f98aa9ce704152ac17354914ad73ed1167ae6596af510aa5b3649325e06c92919050565b81601003610c9857507f2a7c7c9b6ce5880b9f6f228d72bf6a575a526f29c66ecceef8b753d38bba7323919050565b81601103610cc757507f2e8186e558698ec1c67af9c14d463ffc470043c9c2988b954d75dd643f36b992919050565b81601203610cf657507f0f57c5571e9a4eab49e2c8cf050dae948aef6ead647392273546249d1c1ff10f919050565b81601303610d2557507f1830ee67b5fb554ad5f63d4388800e1cfe78e310697d46e43c9ce36134f72cca919050565b81601403610d5457507f2134e76ac5d21aab186c2be1dd8f84ee880a1e46eaf712f9d371b6df22191f3e919050565b81601503610d8357507f19df90ec844ebc4ffeebd866f33859b0c051d8c958ee3aa88f8f8df3db91a5b1919050565b81601603610db257507f18cca2a66b5c0787981e69aefd84852d74af0e93ef4912b4648c05f722efe52b919050565b81601703610de157507f2388909415230d1b4d1304d2d54f473a628338f2efad83fadf05644549d2538d919050565b81601803610e1057507f27171fb4a97b6cc0e9e8f543b5294de866a2af2c9c8d0b1d96e673e4529ed540919050565b81601903610e3f57507f2ff6650540f629fd5711a0bc74fc0d28dcb230b9392583e5f8d59696dde6ae21919050565b81601a03610e6e57507f120c58f143d491e95902f7f5277778a2e0ad5168f6add75669932630ce611518919050565b81601b03610e9d57507f1f21feb70d3f21b07bf853d5e5db03071ec495a0a565a21da2d665d279483795919050565b81601c03610ecc57507f24be905fa71335e14c638cc0f66a8623a826e768068a9e968bb1a1dde18a72d2919050565b81601d03610efb57507f0f8666b62ed17491c50ceadead57d4cd597ef3821d65c328744c74e553dac26d919050565b81601e03610f2a57507f0918d46bf52d98b034413f4a1a1c41594e7a7a3f6ae08cb43d1a2a230e1959ef919050565b81601f03610f5957507f1bbeb01b4c479ecde76917645e404dfa2e26f90d0afc5a65128513ad375c5ff2919050565b60405162461bcd60e51b8152602060048201526013602482015272496e646578206f7574206f6620626f756e647360681b6044820152606401610544565b919050565b6001600a5460ff166002811115610fb557610fb56115e9565b146110175760405162461bcd60e51b815260206004820152602c60248201527f546865206c6f74746572792069736e7420696e207468652072657665616c207760448201526b696e6e65727320737461746560a01b6064820152608401610544565b60075484146110615760405162461bcd60e51b81526020600482015260166024820152757572206e6f7420612077696e6e65722073696c6c792160501b6044820152606401610544565b61106a8661070a565b6110b65760405162461bcd60e51b815260206004820152601b60248201527f726f6f7420697320696e76616c6c6964206f7220746f6f206f6c6400000000006044820152606401610544565b5f8581526005602052604090205460ff16156111335760405162461bcd60e51b815260206004820152603660248201527f74686973207469636b657420697320616c72656164792072657665616c656420604482015275185b99081a5cc8185dd85a5d1a5b99c81c185e5bdd5d60521b6064820152608401610544565b5f858152600560205260408120805460ff19166001179055611157878787876114f8565b600654604051633a94343960e21b81529192506001600160a01b03169063ea50d0e49061118c908690869086906004016117b7565b602060405180830381865afa1580156111a7573d5f803e3d5ffd5b505050506040513d601f19601f820116820180604052508101906111cb919061182f565b61120c5760405162461bcd60e51b81526020600482015260126024820152711cdb985c9adc1c9bdbd9881a5b9d985b1a5960721b6044820152606401610544565b5050600b80546001810182555f919091527f0175b7a638427703f0dbe7bb9bbf987a2551717b34e79f33b5b1008d1fa01db90180546001600160a01b0319166001600160a01b03939093169290921790915550505050565b61126c6112a1565b6001600160a01b03811661129557604051631e4fbdf760e01b81525f6004820152602401610544565b61129e816112d6565b50565b6003546001600160a01b03600160401b9091041633146107945760405163118cdaa760e01b8152336004820152602401610544565b600380546001600160a01b03838116600160401b81810268010000000000000000600160e01b031985161790945560405193909204169182907f8be0079c531659141344cd1fd0a4f28419497f9722a3daafe3b4186f6b6457e0905f90a35050565b6003545f8054909163ffffffff64010000000090910481169161135d9116600261195d565b63ffffffff168163ffffffff16036113d05760405162461bcd60e51b815260206004820152603060248201527f4d65726b6c6520747265652069732066756c6c2e204e6f206d6f7265206c656160448201526f1d995cc818d85b88189948185919195960821b6064820152608401610544565b80835f80805b5f5463ffffffff908116908216101561146c576113f4600286611979565b63ffffffff165f03611430578392506114128163ffffffff16610999565b63ffffffff82165f908152600160205260409020859055915061144b565b63ffffffff81165f9081526001602052604090205492508391505b61145583836105d7565b935061146260028661199b565b94506001016113d6565b506003545f90601e906114869063ffffffff1660016119bd565b6114909190611979565b6003805463ffffffff191663ffffffff83169081179091555f90815260026020526040902085905590506114c58660016119bd565b6003805463ffffffff929092166401000000000267ffffffff000000001990921691909117905550939695505050505050565b60408051600480825260a082019092526060915f91906020820160808036833701905050905085815f815181106115315761153161172b565b60200260200101818152505084816001815181106115515761155161172b565b602002602001018181525050835f1b816002815181106115735761157361172b565b602090810291909101015280516001600160a01b038416908290600390811061159e5761159e61172b565b602090810291909101015295945050505050565b5f602082840312156115c2575f80fd5b5035919050565b5f80604083850312156115da575f80fd5b50508035926020909101359150565b634e487b7160e01b5f52602160045260245ffd5b602081016003831061161d57634e487b7160e01b5f52602160045260245ffd5b91905290565b80356001600160a01b0381168114610f97575f80fd5b5f805f805f8060a0878903121561164e575f80fd5b86359550602087013594506040870135935061166c60608801611623565b9250608087013567ffffffffffffffff80821115611688575f80fd5b818901915089601f83011261169b575f80fd5b8135818111156116a9575f80fd5b8a60208285010111156116ba575f80fd5b6020830194508093505050509295509295509295565b5f602082840312156116e0575f80fd5b6116e982611623565b9392505050565b634e487b7160e01b5f52601260045260245ffd5b634e487b7160e01b5f52601160045260245ffd5b5f82611726576117266116f0565b500490565b634e487b7160e01b5f52603260045260245ffd5b6040810181835f5b6002811015611766578151835260209283019290910190600101611747565b50505092915050565b5f6020828403121561177f575f80fd5b5051919050565b5f63ffffffff82168061179b5761179b611704565b5f190192915050565b8082018082111561066657610666611704565b60408152826040820152828460608301375f606084830101525f601f19601f850116820160608101602060608584030160208601528186518084526080850191506020880194505f93505b808410156118225784518252938201936001939093019290820190611802565b5098975050505050505050565b5f6020828403121561183f575f80fd5b815180151581146116e9575f80fd5b600181815b8085111561188b578163ffffffff0482111561187157611871611704565b8085161561187e57918102915b93841c9390800290611853565b509250929050565b5f826118a157506001610666565b816118ad57505f610666565b81600181146118c357600281146118cd576118fe565b6001915050610666565b60ff8411156118de576118de611704565b6001841b915063ffffffff8211156118f8576118f8611704565b50610666565b5060208310610133831016604e8410600b8410161715611935575081810a63ffffffff81111561193057611930611704565b610666565b61193f838361184e565b8063ffffffff0482111561195557611955611704565b029392505050565b5f63ffffffff611971818516828516611893565b949350505050565b5f63ffffffff8084168061198f5761198f6116f0565b92169190910692915050565b5f63ffffffff808416806119b1576119b16116f0565b92169190910492915050565b63ffffffff8181168382160190808211156119da576119da611704565b509291505056fea2646970667358221220fc2cf12b416ce08bbdc772cb5fcb088da161ba6e188eed9b60a4858c2674f80864736f6c63430008180033",
  "linkReferences": {
    "poseidon-solidity/PoseidonT3.sol": {
      "PoseidonT3": [
        {
          "length": 20,
          "start": 3944
        }
      ]
    }
  },
  "deployedLinkReferences": {
    "poseidon-solidity/PoseidonT3.sol": {
      "PoseidonT3": [
        {
          "length": 20,
          "start": 1531
        }
      ]
    }
  }
}